S0180000454D475F53656E736F72735F426173652E737265630D
S1130000A0200020250100002101000021010000A2
S113001000000000000000000000000000000000DC
S113002000000000000000000000000021010000AA
S1130030000000000000000021010000591400002D
S11300402101000021010000210100002101000024
S11300502101000021010000210100002101000014
S113006045140000210100002101000021010000CD
S113007021010000210100002101000021010000F4
S11300802101000021010000210100000000000006
S113009000000000210100002101000021010000F6
S11300A021010000210100002101000021010000C4
S11300B00000000010B5064C2378002B07D1054B37
S11300C0002B02D0044800E000BF0123237010BDC0
S11300D00000002000000000A0170000084B10B52D
S11300E0002B03D00749084800E000BF0748036815
S11300F0002B00D110BD064B002BFBD09847F9E72D
S11301000000000004000020A0170000A017000059
S11301100000000010B5014B984710BD65030000B6
S1130120FEE7000010B5124A124B9A4209D0114B57
S11301300F4A03E011681960043304320E498B42FC
S1130140F8D30E4B02E000221A6004330C4A9342A7
S1130150F9D30C4AFF210C4B8B4393600B4A516833
S113016080230B4353600A4B98470A4B9847FEE79A
S1130170A017000000000020000000200000002064
S1130180A000002000ED00E000000000004000415D
S11301901D160000CD1400008022C023DB055A6028
S11301A00A4A0B4B9362C0231B0693624721535C9C
S11301B0012083430343DBB253541439535C0F20AF
S11301C0034010200343DBB253547047002800401F
S11301D080000040044A136A08210B43136238313B
S11301E0F823024AD1507047000400400018004030
S11301F010B5054B9847054B98470022044905481C
S1130200054B984710BDC046D50100009901000078
S1130210000C00437C0000205504000070B5134B13
S11302204820195C042291431954195C0125A943FF
S113023001242143C9B219541438195C0F26B1435F
S113024002263143C9B2195449215E5C96435E5477
S11302505A5CAA432243D2B25A541A5C3A390A402D
S113026020210A43D2B21A5470BDC046002800406F
S1130270064B4221C82299500131043A9950044A4C
S1130280D36942390B43D3617047C046001800401C
S11302900004004010B5064B98471023054A8421FA
S11302A0C9050548054CA047054B984710BDC046F5
S11302B0710200002400002034000020A106000088
S11302C01D02000070B5134B5020195C04229143A9
S11302D01954195C0125A94301242143C9B21954B5
S11302E01838195C0F26B14302263143C9B2195498
S11302F051215E5C96435E545A5CAA432243D2B2B7
S11303005A541A5C42390A4020210A43D2B21A5480
S113031070BDC04600280040064B4221CC229950B3
S11303200131083A9950044AD36941390B43D361E6
S11303307047C046001800400004004010B5044B4C
S1130340984704490448054B9847054B984710BD06
S11303501903000000040042800000201105000081
S1130360C502000070B52F4B9847C022D2058023E8
S11303701B01936193602C4B2C499962C0200006A9
S113038098624B255C5D01218C435C558024E4011B
S113039094619460264C9C62986203355C5D8C4346
S11303A05C558024240294619460224C9C6298627F
S11303B04F24185D884318558020C0035061906015
S11303C08020C00598621C4C9C6208355C5D8C439F
S11303D05C5580242404546194609862174C9C6298
S11303E001355C5D8C435C558024640454619460E5
S11303F09862134C9C6201355C5D8C435C5580248F
S1130400A4045461946098620E4A9A6259201A5C5A
S11304108A431A540C4B98470C4B98470C4B9847FB
S113042070BDC046050A00000028004000080040D6
S11304300040004000800040400000C0800000C038
S1130440000100C0000200C0F1010000950200009C
S11304503D03000070B504000D0000280DD00029F4
S113046009D0012039220649064B9847290020006B
S1130470054B984770BD0020F4E70020F2E7C04622
S1130480641600003D070000CD090000EFF310835F
S1130490036072B6BFF35F8F7047BFF35F8F03686B
S11304A083F310887047000010B584B01438848B2F
S11304B001AB1C8014000292064A5A800391190071
S11304C0054B9847002802D1200004B010BD040059
S11304D0FAE7C0460080FFFF2911000010B584B080
S11304E01438848B01AB1C8014000292064A5A8093
S11304F003911900054B9847002802D1200004B04D
S113050010BD0400FAE7C0460180FFFF2911000076
S113051070B504000D00431E9841C0B25E22074925
S1130520074B984729002000064B9847002803D121
S1130530054BA361054B636170BDC0468016000086
S11305403D070000F9100000DD040000A9040000CC
S113055010B5036A002B00D0984710BD10B50400F5
S11305603030044B9847E36A002B01D020009847B1
S113057010BDC046DD07000010B54423C25A002A4E
S113058004D1436A002B00D0984710BD4621435A3A
S113059001339BB243529A4209D10023462283522B
S11305A0023A8352836A002BEFD09847EDE7026C3E
S11305B0D15C014B9847E8E73D14000070B5040096
S11305C00E00150000281BD000291BD0002A1BD1C7
S11305D000205222FF320F490F4B98474622230036
S11305E0183B9A5A44215B5A9A420FD1200018387A
S11305F006644423C5523178084B9847280070BDDF
S11306000020E6E70020E4E70120E2E7042040427E
S1130610F5E7C0469C1600003D0700003D140000AD
S1130620F0B585B004000D001600002817D000298D
S113063017D0002A17D100209B2252001249134BD5
S1130640984703A8124B9847183420000194114B83
S11306509847070003A8104B984700240BE000209C
S1130660EAE70020E8E70120E6E70134A4B26918CC
S113067001980A4B98472100A74201D9B442F4D308
S1130680200005B0F0BDC0469C1600003D070000E8
S11306908D0400001D0800009B0400009107000069
S11306A0F8B504000D0016001F00002828D000290A
S11306B028D0002A28D0002B28D100203A2216491D
S11306C0164B9847200030303A003100144B9847BD
S11306D000281DD129002000124B984700280ED174
S11306E0114BE361114BA361114B6360114BA36088
S11306F0114BE36000234622A352023AA352F8BDF1
S11307000020DBE70020D9E70020D7E70120D5E768
S11307100D204042F3E7C0469C1600003D07000050
S113072045070000A513000021060000BD050000D8
S113073051050000790500005D050000002800D186
S113074000BE704770B504000E001500002812D0DA
S1130750002912D0002A12D1002028220A490B4B6A
S113076098476B1E2B420CD163600023A360E360A7
S11307702660002070BD0020EFE70020EDE7012097
S1130780EBE70D204042F5E7BC1600003D070000F2
S113079070B504000D00002816D0002912D00120E5
S11307A040220C490C4B9847A368E2689A420DD04A
S11307B0626813402268D35C2B70A3680133A36082
S11307C0002070BD0020EBE70020E9E70A2040424A
S11307D0F7E7C046BC1600003D07000070B50400F2
S11307E00D00431E9841C0B251220A490A4B984752
S11307F06368E26813402268D554E368A2689A1AD1
S113080061688A4201D9591AA1600133E36000206A
S113081070BDC046BC1600003D07000010B50400C2
S1130820431E9841C0B267220349044B9847E068CD
S1130830A368C01A10BDC046BC1600003D070000E6
S11308400020704710B50B4B984702000020002889
S113085006D08C2208490020084B9847002010BD80
S1130860C3001B1A9900064BCB5C9A42F7D00130A7
S1130870C0B2ECE741080000FC1600003D07000090
S1130880E016000070B504000D004B4B1B681E02FF
S1130890E022D2003240DB0807261E401643474BB5
S11308A0C01843425841C0B2AD224549454B984710
S11308B0238CDB0714D4238C9B07FCD123789B0760
S11308C009D52378022293432370238C9B07FCD100
S11308D0238C9B07FCD401232370238C9B07FCD11E
S11308E0238CDB07FCD4A685EA00521B9100364B0F
S11308F05B189A786270DA78A2701A79E270DB88F1
S11309002381238C5B05FCD1EB005B1B9A002E4BEF
S11309109B181B896381238C5B05FCD1EB005B1B5B
S11309209A00294B9B189B7A2373238C5B05FCD17B
S1130930EB005B1B9A00244B9B18DB7A6373238CBC
S11309405B05FCD1EB005B1B9A001F4B9B189B893A
S1130950E381238C5B06FCD4EB005B1B9A001A4BEF
S11309609B18DB892382238C1B06FCD4EB005B1BC6
S11309709A00154B9B181B8A6382238CDB05FCD4DD
S1130980EB005B1B9A00104B9B185B8AA382238CA1
S11309909B05FCD40C4AEB00581B8100080051183D
S11309A0097D21770021A162121853782370238CCA
S11309B09B07FCD1002070BD2060800000F4FFBCC8
S11309C0FC1600003D070000E016000070B50500AD
S11309D00C00431E9841C0B2DB220649064B9847DF
S11309E02C602000054B984701002000044B9847D9
S11309F070BDC046FC1600003D070000450800001D
S1130A008508000010B50A4B5A685A600220094B49
S1130A109847094B9847094B9847094B9847022038
S1130A20084CA047084B9847FD20A04710BDC0467E
S1130A3000400041A90B0000B50A0000D10A0000E3
S1130A40A10A00004D0A0000090B0000C30707D5E6
S1130A500E4A0F4B1A620E4B5A680E4B1A42FAD1C9
S1130A60830707D50C4A0A4B5A62094B5A68094B4B
S1130A701A42FAD1430707D5084A054B9A62044B38
S1130A805A68044B1A42FAD17047C0460601010065
S1130A9000180040FD0700000301010006010400E6
S1130AA0034B08229A71043A5A71033A1A71704737
S1130AB000040040054AD3691B0A1B02F8214901BE
S1130AC00B40D361012313617047C04600100040FE
S1130AD082220C4B1A7538230A4AD35C9B07FAD43A
S1130AE0084BDB68DB06FBD5064A137D80214942AF
S1130AF00B43DBB213753823024AD25C2A3B1A42F9
S1130B00F9D17047000C0040234B1968890E41202D
S1130B108023224AD0500222214B1A833823204AB0
S1130B20D35C9B07FAD41E4BDB68DB05FBD51D4A5F
S1130B301B4B1A621A4BDB68DB05FBD58902802349
S1130B409B000B43164AD361062313833823144AAC
S1130B50D35C9B07FAD4138B5B0717D5104BDB6868
S1130B609022120113409342F8D10D4A138B802135
S1130B700B439BB213833823094AD25C2A3B1A42A3
S1130B80F9D1064B5B68002BFBD17047044BDB6843
S1130B90DB05FBD5E9E7C046206080000018004073
S1130BA0000C0040B90501048023DB059B78032277
S1130BB0134098420ED08022D205FF23937193787C
S1130BC003218B430840184390708023DB059B79F5
S1130BD0002BFAD070470000054B984206D0BE2384
S1130BE01B069C466044800AC0B270470520FCE79F
S1130BF0000400438423DB05984200D07047014B76
S1130C001960FBE71C00002010B5024B9847083020
S1130C10C0B210BDD90B000010B50D4B984700238E
S1130C20002B07D00B4A0C4900200C4B984701209D
S1130C30404210BD5A00D218D100094A5218127D00
S1130C40904202D00133DBB2EAE758B2F1E7C04682
S1130C50D90B0000A1030000641700003D07000049
S1130C601417000070B505000C0008002D4B9847C0
S1130C70C0B2E369DB071DD443001B18DA002A4B1A
S1130C809B189A691C231A40E3699B07FCD12368CB
S1130C909B0709D5236802218B432360E3699B07E3
S1130CA0FCD1E3699B07FCD4012313432360E3696C
S1130CB09B07FCD1E369DB07FCD443001B18DA0073
S1130CC0194B9B189B692360E3699B07FCD1430084
S1130CD01B18DA00144B9B18DB696360E3695B073C
S1130CE0FCD442001218D1000F4B5B181A6AE26060
S1130CF0DA7E03231A40AA81023B93429B415B4262
S1130D00626A0A490A409B0313436362E3695B070F
S1130D10FCD443001818C200034B9B18DB8CEB81F6
S1130D20002070BD190C000014170000FFBFFFFF66
S1130D3070B5050004692368DB0E01261E40431EBE
S1130D409841C0B28E4A8F498F4B98476B68012BEC
S1130D504DD063688D4A13406360E3695B07FCD43C
S1130D602B885A054ED56A88D20704D56A88802113
S1130D70C9000A436A805B00854A1A40E3695B073D
S1130D80FCD4636A8021C9010B4013438022120200
S1130D9013436362E3695B07FCD42E697D4A337EA7
S1130DA0DBB21800511E002A02D00A009B07F6D0BD
S1130DB02368DB0E01221A40E3695B07FCD4638BD2
S1130DC09BB2C10700D48FE09A072FD50122227667
S1130DD06A88802149010A436A806A886E490A4008
S1130DE06A80DB0700D4C6E005204042A2E0002E62
S1130DF0AFD062688023DB0213436360E3695B075F
S1130E00FCD4ADE75B00FF2213406A8801210A404D
S1130E101A43E3695B07FCD4636A8021C9010B4070
S1130E2013436362E3695B07FCD4B6E75B071BD437
S1130E306B885B0534D52A881212520006231A40A7
S1130E40E3695B07FCD4636A8021C9010B40134347
S1130E50F12213436362E3695B07FCD46B884F4A56
S1130E6013406B80002065E06B68002B04DD6B8809
S1130E708022520113436B806B881BB2002B06DB6C
S1130E806B88454A13406B800220404252E06268FE
S1130E90C0239B0213436360E3695B07FCD4EFE761
S1130EA06868002811D16B881BB2002B04DB6B88A7
S1130EB0394A13406B803DE06268C0239B021343B0
S1130EC06360E3695B07FCD4F1E7AB681A78282315
S1130ED0E254E3695B07FCD4AB680133AB606B6835
S1130EE0013B6B60002025E0810747D56968002934
S1130EF03CD05B073AD401396960002901D1002A4A
S1130F001BD0012917D06B68002B07D16B881BB24B
S1130F10002B1BDB6B88204A13406B80AA68531C90
S1130F20AB60E3695B07FCD42823E35C1370022302
S1130F302376002070BD002AE5D062688023DB029E
S1130F4013436360E3695B07FCD4DCE76368124A1C
S1130F5013406360E3695B07FCD46268C0239B02AF
S1130F6013436360E3695B07FCD4D3E7022323766E
S1130F7002204042DEE704204042DBE70020D9E7BC
S1130F809D050000641700003D070000FFFFFBFF04
S1130F90FE070000FFFF0000FFFEFFFFFFFBFFFF57
S1130FA010B50C4B98470023002B07D00A4A0B4975
S1130FB000200B4B98470120404210BD1901094AFB
S1130FC052182C21525C904202D00133DBB2EBE781
S1130FD058B2F2E7D90B0000D507000064170000EF
S1130FE03D0700001417000010B504001C4B98477F
S1130FF0431C32D0E369DB071BD40201194B9B1855
S11310001A6B1C231A40E3699B07FCD123689B07D6
S113101009D5236802218B432360E3699B07FCD134
S1131020E3699B07FCD4012313432360E3699B0713
S1131030FCD1E369DB07FCD402010A4B9B181B6B50
S11310402360E3699B07FCD10001064B1818436B2E
S1131050636010236362002010BD0D204042FBE753
S1131060A10F00001417000070B5060005682C7E5F
S1131070E4B263B2002B1DDBA30701D502232B7658
S1131080E30701D501232B76630712D56B8B1B076E
S11310901CD4F068431E9841C0B2124A1249134B43
S11310A09847F3682822A95CC9B230009847042302
S11310B02B7670BD4068431E9841C0B20C4A0A4961
S11310C00A4B9847300073689847D5E7B068431EC9
S11310D09841C0B2074A0449044B9847B3683000AA
S11310E09847E4E794070000641700003D070000F8
S11310F0890700009707000070B504000D00431E27
S11311009841C0B2A222D2000449054B98472561F8
S113111029002000034B984770BDC04664170000A7
S11311203D070000650C0000F8B505000E000469D9
S1131130431E9841C0B2B922D2009249924FB84797
S11311402869431E9841C0B2904A8E49B84730007E
S1131150431E9841C0B28E4A8A49B8476B88DB0562
S113116000D50BE1728880235B009C461A43728091
S11311702A00310089C989C26268634613436360E7
S1131180E3695B07FCD42800824B9847002800D110
S11311909DE06B88804A13406B80F8BD0520404277
S11311A0A6E073881BB2002B04DB6B887A4A1340D9
S11311B06B80F2E76268C0239B0213436360E369B8
S11311C05B07FCD4F1E753071BD46B885B0534D56C
S11311D02A881212520006231A40E3695B07FCD4E2
S11311E0636A8021C9010B401343F12213436362F4
S11311F0E3695B07FCD46B88684A13406B8000206A
S113120065E06B68002B04DD6B8880225201134378
S11312106B806B881BB2002B06DB6B885E4A134025
S11312206B800220404252E06268C0239B02134359
S11312306360E3695B07FCD4EFE76868002811D1B9
S11312406B881BB2002B04DB6B88534A13406B8002
S11312503DE06268C0239B0213436360E3695B075C
S1131260FCD4F1E7AB681A782823E254E3695B07FE
S1131270FCD4AB680133AB606B68013B6B6000204E
S113128025E0BB0778D56B68002B6DD052076BD473
S1131290013B6B60002B01D100294CD0012B48D0BD
S11312A06B68002B07D16B881BB2002B4CDB6B885F
S11312B0394A13406B80AA68531CAB60E3695B072F
S11312C0FCD42823E35C13700223237600206B886C
S11312D0DB0500D461E72869314A037EDBB21F00D5
S11312E0511E002A00D159E70A009B07F5D00020BF
S11312F0002800D055E72368DB0E01211940E3697B
S11313005B07FCD4628B92B2FB07BAD5930700D477
S113131059E7012323766B88802149010B436B80B5
S11313206B881D490B406B80D30722D505204042B2
S1131330CDE70029B4D062688023DB0213436360E5
S1131340E3695B07FCD4ABE76368134A134063604B
S1131350E3695B07FCD46268C0239B0213436360A8
S1131360E3695B07FCD4A2E7022323760220404210
S1131370ADE704204042AAE70020A8E70620404247
S11313800BE7C046641700003D070000C9050000D4
S1131390CA050000310D0000FFFEFFFFFFFBFFFF49
S11313A0FFFF000070B506000C00431E9841C0B258
S11313B0D622D2001B491C4B984720001B4B984750
S11313C0051E01D0280070BD346031002000184B88
S11313D098472000174B984743B2002B0ADB1F2184
S11313E0014001228A408021134E7250BFF34F8F77
S11313F0BFF36F8F002B07DB1F21014001228A40BE
S1131400C02149000C4E7250002B05DB1F231840ED
S11314101E3B8340084A13600223A375013BA37556
S1131420D0E7C046641700003D070000E90F000044
S1131430F50B0000090C000000E100E0026828231D
S1131440D154704710B5024B1868024B984710BD31
S11314501C0000206910000010B582B0164B1888DB
S1131460013080B21880FA218900144B984789B260
S1131470002901D002B010BD00220F4B1A8001A830
S11314800F4B9847C023DB051C680E4A126A1B6980
S113149053401C40544001A80B4B9847230505D5E5
S11314A080221201C023DB055A61E3E78022120186
S11314B0C023DB059A61DDE720000020111600003F
S11314C08D040000002800409B04000010B5094B67
S11314D09847094A094B53600948036A1B021B0ACF
S11314E0C02109060B430362002393600733136092
S11314F0FEE7C0461501000010E000E09F0F000069
S113150000ED00E0002243088B4274D303098B42B0
S11315105FD3030A8B4244D3030B8B4228D3030CBF
S11315208B420DD3FF22090212BA030C8B4202D361
S11315301212090265D0030B8B4219D300E0090A89
S1131540C30B8B4201D3CB03C01A5241830B8B4292
S113155001D38B03C01A5241430B8B4201D34B037B
S1131560C01A5241030B8B4201D30B03C01A5241E0
S1131570C30A8B4201D3CB02C01A5241830A8B4265
S113158001D38B02C01A5241430A8B4201D34B024E
S1131590C01A5241030A8B4201D30B02C01A5241B2
S11315A0CDD2C3098B4201D3CB01C01A5241830966
S11315B08B4201D38B01C01A524143098B4201D3A0
S11315C04B01C01A524103098B4201D30B01C01ACB
S11315D05241C3088B4201D3CB00C01A5241830845
S11315E08B4201D38B00C01A524143088B4201D372
S11315F04B00C01A5241411A00D2014652411046D2
S11316007047FFE701B5002000F006F802BDC046B0
S11316100029F7D076E770477047C04670B50026BA
S11316200C4D0D4C641BA410A64209D1002600F0F9
S1131630A7F80A4D0A4C641BA410A64205D170BD3C
S1131640B300EB5898470136EEE7B300EB589847E0
S11316500136F2E78C1700008C1700008C1700008D
S1131660901700002E2E2F68616C2F7372632F6801
S1131670616C5F6164635F73796E632E6300000065
S11316802E2E2F68616C2F7372632F68616C5F69F3
S113169032635F6D5F73796E632E63002E2E2F6845
S11316A0616C2F7372632F68616C5F6932635F735F
S11316B05F6173796E632E63000000002E2E2F6825
S11316C0616C2F7574696C732F7372632F757469F1
S11316D06C735F72696E676275666665722E63000D
S11316E000000705000007180000000000000000CB
S11316F00000000000000000000000002E2E2F68F3
S1131700706C2F6164632F68706C5F6164632E6317
S113171000000000000000000000000000000000C5
S11317200000000000000000010000001400200080
S113173000010000FF0000000000D70040420F003D
S11317400000000010002000000500001000000050
S11317500000000000000000000000000000000085
S1131760000000002E2E2F68706C2F736572636F5B
S11317706D2F68706C5F736572636F6D2E6300000C
S1131780F8B5C046F8BC08BC9E467047DD000000B2
S1131790F8B5C046F8BC08BC9E467047B5000000CA
S9030000FC
