S0180000454D475F53656E736F72735F4D61696E2E7372656303
S11300009820002001060000FD050000FD05000009
S113001000000000000000000000000000000000DC
S1130020000000000000000000000000FD050000CA
S11300300000000000000000FD050000891700001A
S1130040FD050000FD050000FD050000FD050000A4
S1130050FD050000FD050000FD050000FD05000094
S11300605D1D0000FD050000FD050000FD0500000C
S1130070FD050000FD050000FD050000FD05000074
S1130080FD050000FD050000FD0500000000000066
S113009000000000FD050000FD050000FD05000056
S11300A0FD050000FD050000FD050000FD05000044
S11300B00000000010B5064C2378002B07D1054B37
S11300C0002B02D0044800E000BF0123237010BDC0
S11300D01400002000000000243B0000084B10B571
S11300E0002B03D00749084800E000BF0748036815
S11300F0002B00D110BD064B002BFBD09847F9E72D
S11301000000000018000020243B0000243B0000F5
S113011000000000F0B583B001AB18800F0000248C
S113012013E001AB1B78E3180B494B700B4E022212
S113013030680B4B98470B4D2870391930680122F1
S1130140094B984728700134E4B201AB5B789C42B8
S1130150E7D3002003B0F0BD580000203000002099
S1130160850B00005A000020BD0B000010B582B0C2
S1130170B022134B1A70134B0F3A1A709D3A5A70EF
S1130180114C12492000124B9847802212010D2174
S11301902000104B984701A90F4B18680F4B984744
S11301A000280AD101AA13781B0252781343A02213
S11301B01202934202D0013000E0012002B010BDCF
S11301C0580000205C000020640000203000002063
S11301D07D0B0000D90A0000FC3800001501000066
S11301E030B585B001AB18800D0000240FE001ABE1
S11301F01B78E31803A90B702B5D4B70074B186831
S11302000222074B9847074B18700134E4B201AB44
S11302105B789C42EBD3002005B030BD3000002059
S1130220850B00005A00002000B583B001A90A4BD9
S113023018680A4B98470A4A1070002801D003B086
S113024000BD01A94B78102213434B70024B186870
S1130250044B9847F3E7C046FC3800001501000042
S11302605A000020E101000010B582B0040001A989
S11302700A4B18680A4B98470A4A1070002801D0A4
S113028002B010BD01A90B780F301840204308704C
S1130290024B1868044B9847F2E7C046FC3800004C
S11302A0150100005A000020E101000000B583B0F0
S11302B001A9094B1868094B9847094A107000288E
S11302C001D003B000BD01A900234B70024B186894
S11302D0044B9847F5E7C046FC38000015010000C0
S11302E05A000020E101000000B583B001AB587052
S11302F0000AC0B21870400803231840012804D92A
S1130300032802D0FF2003B000BD01A9024B986866
S1130310024B9847F7E7C046FC380000E1010000B3
S113032030B583B0114B98470022114B114CA047B4
S11303300022114B114CA047114B9847114B984286
S113034002D9FF2003B030BD030C01AC2370030AB3
S11303506370A0700C4B5D88210028000B4B9847FC
S1130360210028000A4B9847ECE7C046FD34000002
S113037068FF4F41012300000000A04169290000EB
S1130380C5220000FFFFFF00FC380000E10100006F
S11303901501000010B582B00E4B984700220E4B99
S11303A00E4CA04700220E4B0E4CA0470E4B984714
S11303B00E4B984202D9FF2002B010BD030C01A9D4
S11303C00B70030A4B708870094B5868094B9847A7
S11303D0F2E7C046FD34000068FF4F4101230000EE
S11303E00000A04169290000C5220000FFFFFF00B2
S11303F0FC380000E101000000B583B0074B9842CF
S113040002D9FF2003B000BD030A01A90B70487094
S1130410034BD888034B9847F4E7C046FF0100001C
S1130420FC380000E101000010B582B0040001A90D
S11304300E4B18680E4B98470E4A1070002811D1C5
S113044001AA137801218B431370002C05D0012CD1
S11304500AD10122134301AA137001A9034B18689E
S1130460054B984702B010BDFF20FBE7FC380000A5
S1130470150100005A000020E101000010B582B00F
S1130480040001A9134B1868134B9847134A1070C2
S1130490002818D101AA137806218B431370042C69
S11304A013D0062C06D0002C08D00222134301AA34
S11304B0137003E00622134301AA137001A9054B2C
S11304C01868074B984702B010BD0422134301AAD1
S11304D01370F3E7FC380000150100005A000020F7
S11304E0E101000010B5A0280CD0B02806D00028E7
S11304F001D0FF2001E0054B984710BDB020034B0D
S11305009847FAE7A020014B9847F6E769020000F4
S113051030B583B004000D00B0202F4B9847031E64
S11305202E4A107002D0180003B030BDFA204000EB
S11305302B4B984710202B4B9847031E274A1070CB
S1130540F1D1FA204000264B98472020254B9847AC
S1130550031E224A1070E6D100226B46DA71224B48
S113056058896B46D91D214B9847031E1B4A1070AE
S1130570D9D16B4607331B789B07F0D51A4BD88922
S113058021001A4B9847031E144A1070CBD129003E
S1130590154B1869154B9847031E104A1070C2D1A9
S11305A03020104B9847031E0C4A1070BBD10E4BE1
S11305B058896B46D91D0D4B9847031E074A107086
S11305C0B1D16B4607331B785B07F0D5B020024BE3
S11305D098470300A7E7C046E50400005A0000203E
S11305E0050A000069020000FC3800001501000043
S11305F010B5014B984710BD99070000FEE70000B5
S113060010B5124A124B9A4209D0114B0F4A03E01B
S113061011681960043304320E498B42F8D30E4B2F
S113062002E000221A6004330C4A9342F9D30C4AC4
S1130630FF210C4B8B4393600B4A516880230B437F
S113064053600A4B98470A4B9847FEE7243B000047
S1130650000000201400002014000020940000205A
S113066000ED00E0000000000040004125380000DB
S11306702D1900008022C023DB055A600A4A0B4B67
S11306809362C0231B0693624721535C012083437A
S11306900343DBB253541439535C0F20034010203E
S11306A00343DBB2535470470028004080000040ED
S11306B0044A136A08210B4313623831F823024AAF
S11306C0D1507047000400400018004010B5054B9D
S11306D09847054B9847002204490548054B98471D
S11306E010BDC046B106000075060000000C0043B2
S11306F060000020D508000070B5134B5020195C31
S1130700042291431954195C0125A943012421436E
S1130710C9B219541838195C0F26B1430226314363
S1130720C9B2195451215E5C96435E545A5CAA4383
S11307302243D2B25A541A5C42390A4020210A4355
S1130740D2B21A5470BDC04600280040064B422164
S1130750CC2299500131083A9950044AD36941395D
S11307600B43D3617047C0460018004000040040AA
S113077010B5044B984704490448054B9847054B6A
S1130780984710BD4D07000000040042640000209B
S11307908D0A0000F906000070B5424B9847424BA1
S11307A04822995C0426B1439954985C01218843FA
S11307B098540132985CB0439854985C8843985498
S11307C0C022D2058020C0009060384C9C62C024B6
S11307D024069C6250614A25585DB0435855585DC3
S11307E0884301263043C0B25855153D585D0F2645
S11307F0B04307263043C0B25855802000019061B1
S113080090602B4898629C621635585D8843585511
S11308108020C00190619060264898629C620335F4
S1130820585D8843585580200002906190602248AA
S113083098629C624F24185D884318558020C00339
S1130840506190608020C00598621C4C9C62083501
S11308505C5D8C435C5580242404546194609862EC
S1130860174C9C6201355C5D8C435C5580246404A8
S1130870546194609862134C9C6201355C5D8C43B6
S11308805C558024A4045461946098620E4A9A6270
S113089059201A5C8A431A540C4B98470C4B9847BE
S11308A070BDC046350E0000002800400004004022
S11308B0000800400040004000800040400000C0AC
S11308C0800000C0000100C0000200C0CD0600008E
S11308D07107000070B504000D0000280DD0002938
S11308E009D0012039220649064B984729002000E7
S11308F0054B984770BD0020F4E70020F2E7C0469E
S113090010390000F50B0000890D000070B50400DB
S11309100D00431E9841C0B24E220449044B98472F
S113092029002000034B9847002070BD10390000B7
S1130930F50B0000C10D0000F8B5CE46474680B562
S113094006000D009046994600281AD0002A1AD0B5
S11309504B46002B19D1002067221C491C4FB84775
S1130960340030001B4B98470100060048461A4BE0
S1130970984748424841C0B269221449B847002701
S113098009E00020E8E70020E6E70120E4E7BF19DA
S1130990BFB2B94515D92000104B98472900200053
S11309A00F4B98470028F9D0290020000D4B984799
S11309B04346D855012EEAD97B1C000A4246D0543E
S11309C0E5E738000CBC90469946F8BD10390000A4
S11309D0F50B0000D50D0000B9220000F50D000054
S11309E0EB0D0000090E0000EFF31083036072B6F4
S11309F0BFF35F8F7047BFF35F8F036883F3108883
S1130A007047000010B5044B1C68044B9847010064
S1130A102000034B984710BD34000020110E000045
S1130A202D0E000010B584B01438848B01AB1C80EB
S1130A3014000292064A5A8003911900054B984704
S1130A40002802D1200004B010BD0400FAE7C0461B
S1130A500080FFFF7514000010B584B01438848B37
S1130A6001AB1C8014000292064A5A8003911900BB
S1130A70054B9847002802D1200004B010BD0400A3
S1130A80FAE7C0460180FFFF7514000070B504004A
S1130A900D00431E9841C0B25E220749074B984798
S1130AA029002000064B9847002803D1054BA36179
S1130AB0054B636170BDC0462C390000F50B000086
S1130AC0C5130000590A0000250A000010B5014BA7
S1130AD0984710BDF51300008905890D8023DB00BC
S1130AE01A400A43828310007047000070B586B034
S1130AF0040016001D006B46D9710733828B03A9CD
S1130B000A8001224A6000224A808B60074B984782
S1130B10002801D006B070BD03A9054B4B808E6040
S1130B204D602000014B9847F4E7C046751400005F
S1130B300080FFFF70B586B0040016001D006B46F0
S1130B40D9710733828B03A90A8001224A600022EB
S1130B504A808B60074B9847002801D006B070BDCF
S1130B6003A9054B4B808E604D602000014B9847D4
S1130B70F4E7C046751400000180FFFF14300860DC
S1130B800020704770B504000D00160000280ED038
S1130B9000290AD0012034220649074B98472368CC
S1130BA0320029002000984770BD0020F3E70020A0
S1130BB0F1E7C04648390000F50B000070B50400A9
S1130BC00D00160000280ED000290AD001203D2275
S1130BD00649074B9847636832002900200098476C
S1130BE070BD0020F3E70020F1E7C046483900005B
S1130BF0F50B0000002800D100BE704700207047AC
S1130C0010B50B4B984702000020002806D08C2218
S1130C1008490020084B9847002010BDC3001B1A48
S1130C209900064BCB5C9A42F7D00130C0B2ECE796
S1130C30FD0B000078390000F50B00005C39000062
S1130C4070B504000D004B4B1B681E02E022D2005D
S1130C503240DB0807261E401643474BC018434268
S1130C605841C0B2AD224549454B9847238CDB0718
S1130C7014D4238C9B07FCD123789B0709D52378B4
S1130C80022293432370238C9B07FCD1238C9B0764
S1130C90FCD401232370238C9B07FCD1238CDB071A
S1130CA0FCD4A685EA00521B9100364B5B189A7857
S1130CB06270DA78A2701A79E270DB882381238C5F
S1130CC05B05FCD1EB005B1B9A002E4B9B181B8928
S1130CD06381238C5B05FCD1EB005B1B9A00294BE1
S1130CE09B189B7A2373238C5B05FCD1EB005B1B65
S1130CF09A00244B9B18DB7A6373238C5B05FCD12D
S1130D00EB005B1B9A001F4B9B189B89E381238C90
S1130D105B06FCD4EB005B1B9A001A4B9B18DB8927
S1130D202382238C1B06FCD4EB005B1B9A00154B1F
S1130D309B181B8A6382238CDB05FCD4EB005B1BB2
S1130D409A00104B9B185B8AA382238C9B05FCD4CE
S1130D500C4AEB00581B810008005118097D2177CB
S1130D600021A162121853782370238C9B07FCD1B5
S1130D70002070BD2060800000F4FFBC78390000C2
S1130D80F50B00005C39000070B505000C00431E33
S1130D909841C0B2DB220649064B98472C602000DC
S1130DA0054B984701002000044B984770BDC0468E
S1130DB078390000F50B0000010C0000410C000024
S1130DC00268137802210B43DBB21370138C9B0768
S1130DD0FCD1704703685A89120903231340032B7B
S1130DE001D0022070470120FCE7036898790123B1
S1130DF0184070470268137E02210B43DBB213765E
S1130E00138C5B05FCD170470368988C80B27047E3
S1130E1010B50300C820800058432C30FF309621C1
S1130E204900014B984710BDD91F00000139FDD876
S1130E307047000010B50A4B5A685A600220094BEB
S1130E409847094B9847094B9847094B9847022004
S1130E50084CA047084B9847FD20A04710BDC0464A
S1130E6000400041F10F0000FD0E0000190F0000CA
S1130E70E90E00007D0E0000510F0000C30707D5E6
S1130E80134A144B1A62134B5A68134B1A42FAD181
S1130E90830707D5114A0F4B5A620E4B5A680E4B03
S1130EA01A42FAD1430707D50D4A0A4B9A62094BF5
S1130EB05A68094B1A42FAD1C30607D5094A054BA9
S1130EC01A63044B5A68044B1A42FAD17047C0465D
S1130ED00601010000180040FD07000003010100A5
S1130EE00601020006090800034B08229A71043A1D
S1130EF05A71033A1A71704700040040054AD369D5
S1130F001B0A1B02F82149010B40D3610123136121
S1130F107047C0460010004086220C4B1A753823D7
S1130F200A4AD35C9B07FAD4084BDB68DB06FBD583
S1130F30064A137D802149420B43DBB213753823E3
S1130F40024AD25C2A3B1A42F9D17047000C004095
S1130F50234B1968890E41208023224AD050022253
S1130F60214B1A833823204AD35C9B07FAD41E4BA7
S1130F70DB68DB05FBD51D4A1B4B1A621A4BDB6889
S1130F80DB05FBD5890280239B000B43164AD36102
S1130F90062313833823144AD35C9B07FAD4138B98
S1130FA05B0717D5104BDB68902212011340934264
S1130FB0F8D10D4A138B80210B439BB21383382342
S1130FC0094AD25C2A3B1A42F9D1064B5B68002BD2
S1130FD0FBD17047044BDB68DB05FBD5E9E7C04672
S1130FE02060800000180040000C0040B905010496
S1130FF08023DB059B780322134098420ED0802285
S1131000D205FF239371937803218B43084018433F
S113101090708023DB059B79002BFAD07047000089
S1131020054B984206D0BE231B069C466044800AAA
S1131030C0B270470520FCE70004004310B50D4B17
S113104098470023002B07D00B4A0C4900200C4B77
S113105098470120404210BD5A00D218D100094AD5
S11310605218127D904202D00133DBB2EAE758B243
S1131070F1E7C046211000009B030000E0390000A6
S1131080F50B00009039000070B505000C00080055
S11310902D4B9847C0B2E369DB071DD443001B18EE
S11310A0DA002A4B9B189A691C231A40E3699B07B0
S11310B0FCD123689B0709D5236802218B43236055
S11310C0E3699B07FCD1E3699B07FCD40123134329
S11310D02360E3699B07FCD1E369DB07FCD443008D
S11310E01B18DA00194B9B189B692360E3699B0763
S11310F0FCD143001B18DA00144B9B18DB696360B6
S1131100E3695B07FCD442001218D1000F4B5B1853
S11311101A6AE260DA7E03231A40AA81023B9342F0
S11311209B415B42626A0A490A409B031343636220
S1131130E3695B07FCD443001818C200034B9B18F7
S1131140DB8CEB81002070BD3D1000009039000065
S1131150FFBFFFFF70B5050004692368DB0E01269D
S11311601E40431E9841C0B28E4A8F498F4B984708
S11311706B68012B4DD063688D4A13406360E3694B
S11311805B07FCD42B885A054ED56A88D20704D550
S11311906A888021C9000A436A805B00854A1A4034
S11311A0E3695B07FCD4636A8021C9010B401343E4
S11311B08022120213436362E3695B07FCD42E6945
S11311C07D4A337EDBB21800511E002A02D00A0089
S11311D09B07F6D02368DB0E01221A40E3695B0704
S11311E0FCD4638B9BB2C10700D48FE09A072FD540
S11311F0012222766A88802149010A436A806A882A
S11312006E490A406A80DB0700D4C6E005204042EC
S1131210A2E0002EAFD062688023DB021343636038
S1131220E3695B07FCD4ADE75B00FF2213406A88E7
S113123001210A401A43E3695B07FCD4636A8021F5
S1131240C9010B4013436362E3695B07FCD4B6E74F
S11312505B071BD46B885B0534D52A8812125200B5
S113126006231A40E3695B07FCD4636A8021C90141
S11312700B401343F12213436362E3695B07FCD41D
S11312806B884F4A13406B80002065E06B68002B2D
S113129004DD6B888022520113436B806B881BB280
S11312A0002B06DB6B88454A13406B8002204042CA
S11312B052E06268C0239B0213436360E3695B07E7
S11312C0FCD4EFE76868002811D16B881BB2002BAF
S11312D004DB6B88394A13406B803DE06268C023AD
S11312E09B0213436360E3695B07FCD4F1E7AB68DB
S11312F01A782823E254E3695B07FCD4AB68013312
S1131300AB606B68013B6B60002025E0810747D52B
S1131310696800293CD05B073AD401396960002927
S113132001D1002A1BD0012917D06B68002B07D1EB
S11313306B881BB2002B1BDB6B88204A13406B802D
S1131340AA68531CAB60E3695B07FCD42823E35C05
S1131350137002232376002070BD002AE5D0626852
S11313608023DB0213436360E3695B07FCD4DCE79F
S11313706368124A13406360E3695B07FCD46268E4
S1131380C0239B0213436360E3695B07FCD4D3E788
S11313900223237602204042DEE704204042DBE7BA
S11313A00020D9E797050000E0390000F50B0000A4
S11313B0FFFFFBFFFE070000FFFF0000FFFEFFFF33
S11313C0FFFBFFFF70B504000D00431E9841C0B23F
S11313D0044A0549054B9847256129002000044B20
S11313E0984770BD0A050000E0390000F50B0000C5
S11313F08910000070B50400194D431E9841C0B215
S1131400184A2900184EB04724692000431E984109
S1131410C0B2164A2900B04723680222134323604E
S1131420E3699B07FCD104201149E3695B07FCD401
S1131430628B120903231340012B0BD001390029BD
S1131440F3DC0138002807D010236383E3695B07CA
S1131450FCD4E9E7002070BD06204042FBE7C0460B
S1131460E039000027050000F50B0000F705000037
S1131470FFFF0000F8B505000E000469431E984103
S1131480C0B2924A9249934FB8472869431E984183
S1131490C0B2914A8E49B8473000431E9841C0B249
S11314A08E4A8B49B8476B88DB0500D50BE17288FF
S11314B080235B009C461A4372802A00310089C94C
S11314C089C26268634613436360E3695B07FCD4C3
S11314D02800834B9847002800D19DE06B88814AFF
S11314E013406B80F8BD05204042A6E073881BB210
S11314F0002B04DB6B887B4A13406B80F2E7626845
S1131500C0239B0213436360E3695B07FCD4F1E7E8
S113151053071BD46B885B0534D52A8812125200FA
S113152006231A40E3695B07FCD4636A8021C9017E
S11315300B401343F12213436362E3695B07FCD45A
S11315406B88694A13406B80002065E06B68002B50
S113155004DD6B888022520113436B806B881BB2BD
S1131560002B06DB6B885F4A13406B8002204042ED
S113157052E06268C0239B0213436360E3695B0724
S1131580FCD4EFE76868002811D16B881BB2002BEC
S113159004DB6B88534A13406B803DE06268C023D0
S11315A09B0213436360E3695B07FCD4F1E7AB6818
S11315B01A782823E254E3695B07FCD4AB6801334F
S11315C0AB606B68013B6B60002025E0BB0778D5FE
S11315D06B68002B6DD052076BD4013B6B60002B02
S11315E001D100294CD0012B48D06B68002B07D1C6
S11315F06B881BB2002B4CDB6B883A4A13406B8020
S1131600AA68531CAB60E3695B07FCD42823E35C42
S113161013700223237600206B88DB0500D461E776
S11316202869324A037EDBB21F00511E002A00D112
S113163059E70A009B07F5D00020002800D055E7A1
S11316402368DB0E01211940E3695B07FCD4628B3C
S113165092B2FB07BAD5930700D459E70123237646
S11316606B88802149010B436B806B881D490B40BB
S11316706B80D30722D505204042CDE70029B4D0A2
S113168062688023DB0213436360E3695B07FCD475
S1131690ABE76368134A13406360E3695B07FCD4F8
S11316A06268C0239B0213436360E3695B07FCD455
S11316B0A2E70223237602204042ADE70420404201
S11316C0AAE70020A8E7062040420BE7C205000075
S11316D0E0390000F50B0000C3050000C40500005C
S11316E055110000FFFEFFFFFFFBFFFFFFFF00009F
S11316F030B5204B4822995C0124A143012529439C
S1131700C9B299543420195C393A914302221143E5
S1131710C9B2195449215A5CA2432A43D2B25A5439
S11317201A5C3A390A4020210A43D2B21A54124BA5
S11317304221C82299500131043A99500F4AD36981
S11317401C43D4618423DB0512225A62EE325A60B0
S1131750F93A9A750A4A1A601A6841390A431A60B2
S11317608423DB05DB699B07FAD480225200054BF6
S11317701A6030BD002800400018004000040040FA
S11317801000200000E100E010B584B0604B188820
S1131790013080B218805A8801325A805D4B1B7820
S11317A0002B4BD05A4A938801339380594B5B7872
S11317B0002B48D0564A1389013313815649574B9D
S11317C0984789B2002943D0514BD8885249534B8A
S11317D0984789B200295BD04D4B58894E494F4BED
S11317E0984789B2002900D172E0494B58889989F9
S11317F04A4B984789B2002904D10122444B5A80AC
S1131800444B9A70424B9888D989444B984789B283
S1131810002904D101223E4B9A803E4BDA703C4BA6
S11318201889198A3D4B984789B2002904D10122AD
S1131830374B1A81374B1A7104B010BD344AD38820
S11318400133D380B2E7324A538901335381B5E778
S113185001222F4B1A8001A8314B9847C023DB0586
S11318601C68304A126A1B6953401C40544001A84A
S11318702D4B9847230505D480221201C023DB0594
S11318809A61A1E780221201C023DB055A619BE71C
S113189001221F4BDA8002A8214B9847C023DB05A5
S11318A01C68204A126A1B6953401C40544002A819
S11318B01D4B9847230405D480221202C023DB0564
S11318C09A6189E780221202C023DB055A6183E70B
S11318D001220F4B5A8103A8114B9847C023DB0503
S11318E01C68104A126A1B6953401C40544003A8E8
S11318F00D4B9847630405D48022D201C023DB0535
S11319009A6172E78022D201C023DB055A616CE739
S11319100000002038000020E9030000E52000005A
S1131920E909000000280040F709000070B59F4B4A
S113193098479F499F4B4B609F48036A1B021B0AB1
S1131940C02212061343036200228A6007230B603D
S11319509A4B642119705A7032319970DA703231AD
S113196019715A7132319971DA71954B98479548CA
S1131970954B9847954B984700284FD1944B9847DF
S1131980002834D1934B9847002832D1FA208000A4
S1131990914B984700282ED1904B984700282CD182
S11319A08F4B984700282AD1F530FF308D4B98474C
S11319B0002826D18C4B9847002824D101308B4B2A
S11319C09847002821D10023002B20D00022884BE7
S11319D01A70884B9847002824D1874B98470122D6
S11319E0834B5A7000218548854B984726E0012394
S11319F0EAE70123E8E70123E6E70123E4E701231B
S1131A00E2E70123E0E70123DEE70123DCE7B0207E
S1131A107C4B98470122764B1A70DAE70022744B0C
S1131A201A70D6E70022724B5A70DBE7704BDD78F0
S1131A30002D11D16E4B5C79002C5FD16C4B9B78DF
S1131A40002BF3D00223704A00216C486F4CA0474E
S1131A500022674B9A70E9E7802212010D21594850
S1131A606B4B9847C023DB058022D2039A61802206
S1131A7012049A61802252049A61802292049A612B
S1131A80FA204000634B98470024002C07D1624998
S1131A90881E624B98470028F7D12C00F5E7C02335
S1131AA0DB058022D2039A61802212049A6180228B
S1131AB052049A61802292045A61FA204000554BE4
S1131AC098470025002D07D15549881E534B984748
S1131AD00028F7D12500F5E7C023DB058022520456
S1131AE05A618022D2035A61802212045A618022F0
S1131AF092045A6100223E4BDA709BE700225A712D
S1131B00802212010D212F48414B9847C023DB0549
S1131B108022D2039A61802212049A6180225204A4
S1131B209A61802292049A613E483A4B9847002574
S1131B30002D07D13849881E384B98470028F7D123
S1131B402500F5E7C023DB058022D2039A618022B9
S1131B5012049A61802252049A61802292045A618A
S1131B6030482C4B98470024002C07D12C49881E60
S1131B702A4B98470028F7D12C00F5E7C023DB0552
S1131B80802252045A618022D2035A6180221204B4
S1131B905A61802292045A61154C0025E57022484E
S1131BA01C4B984725710123237247E7F105000078
S1131BB010E000E03F1F000000ED00E08C0000207A
S1131BC0F116000064000020CD0A00006D01000041
S1131BD029020000AD02000021030000950300006B
S1131BE0F9030000E90200007D040000290400005C
S1131BF038000020551F0000A11F000060000020D5
S1131C000D090000E50400008400002039090000EB
S1131C10D90A0000050A00008E000020110500000A
S1131C209200002050C300008813000070B5414B9F
S1131C309A7C0D2A09D893003F4AD3589F463F4ABD
S1131C403F4B1A6002223B4BDA7470BD3D4A3C4B59
S1131C501A600222374BDA74F7E73B4A384B1A60B2
S1131C600222344BDA74F0E7384A354B1A60022208
S1131C70304BDA74E9E7364A314B1A6002222D4BB5
S1131C80DA74E2E72F4A2E4B1A600822294BDA74E1
S1131C900022304B1A72D8E72E4B0C33284A1360BB
S1131CA00222244BDA74D0E72A4C1034214DA8893F
S1131CB00A222100284B9847214B1C600423EB7413
S1131CC0C3E7244C10341B4DE8890A222100224B1F
S1131CD098471B4B1C600423EB74B6E71D4C10346F
S1131CE0144D288A0A2221001B4B9847144B1C6070
S1131CF00423EB74A9E7174B00221A7201325A71BC
S1131D00A3E7144B08330E4A13600122094BDA741B
S1131D109BE7104B00225A701A70064B01329A80CE
S1131D201A8192E70B4A012353701370014A93807E
S1131D3013818AE700000020FC39000084000020A1
S1131D40880000208C0000208E00002090000020DD
S1131D509200002038000020E138000010B58423F0
S1131D60DB051B7EDBB29A070ED58422D2055068B0
S1131D706E49014051605068C0218902014351609D
S1131D80117E0220014311765A0720D58422D20500
S1131D90528B120759D5664A127E6649C97C0139AD
S1131DA08A4240D064490968541C61480476885CBE
S1131DB08421C905282288544868C022920202431B
S1131DC04A608421C9050A7E042002430A76DB079F
S1131DD000D4AAE08423DB051A7E01210A431A7683
S1131DE05B8B1B0700D59AE0514B1A7E511C197668
S1131DF028218420C005415C9B1819774D4B9B7C9E
S1131E00FF2B47D04A48417F0902027F0A434B49CE
S1131E108A4200D90A00073BD9B2092943D88B006A
S1131E204749CB589F4644490968541C40480476A6
S1131E30895C8420C005282281544168414A1140AC
S1131E40802292020A434260BBE7394A107E01288D
S1131E5012D03749421C0A768422D2052824145D04
S1131E6009180C7750683149014051605068C0210D
S1131E70890201435160A4E78422D20550682B49AA
S1131E800140516050682F49084080218902014374
S1131E90516096E7264B1A7F264B9A742A4B984733
S1131EA040E0244B9A81FF22224B9A743AE0214B62
S1131EB0DA81F8E71F4B1A82F5E7012A09D0022AD2
S1131EC00BD0032A0DD0042AEDD102201F4B9847D2
S1131ED0E9E700201D4B9847E5E706201B4B984790
S1131EE0E1E70420194B9847DDE7012A05D0052ACC
S1131EF0D9D10020164B9847D5E70120144B9847B9
S1131F00D1E7002A05D180225204C023DB055A619F
S1131F10C9E780225204C023DB059A61C3E7FF228C
S1131F20044B9A740022024B1A7610BDFFFFFBFF8C
S1131F303800002000000020880000200F27000047
S1131F40343A0000FFFFFCFF2D1C00007D0400005C
S1131F502904000010B582B00E4C802212014821E1
S1131F6020000D4B9847022301AA022120000B4CAC
S1131F70A047C0B200280AD101AA13781B025278E4
S1131F8013439622D201934202D0013000E0012093
S1131F9002B010BD64000020D90A0000350B000017
S1131FA030B583B001AC002323706370074D8022E9
S1131FB0120148212800064B9847022322000121E0
S1131FC02800044CA047C0B203B030BD6400002018
S1131FD0D90A0000ED0A0000002243088B4274D3A2
S1131FE003098B425FD3030A8B4244D3030B8B4216
S1131FF028D3030C8B420DD3FF22090212BA030C1F
S11320008B4202D31212090265D0030B8B4219D3FF
S113201000E0090AC30B8B4201D3CB03C01A52411F
S1132020830B8B4201D38B03C01A5241430B8B4267
S113203001D34B03C01A5241030B8B4201D30B0350
S1132040C01A5241C30A8B4201D3CB02C01A524177
S1132050830A8B4201D38B02C01A5241430A8B423A
S113206001D34B02C01A5241030A8B4201D30B0223
S1132070C01A5241CDD2C3098B4201D3CB01C01A3D
S1132080524183098B4201D38B01C01A5241430947
S11320908B4201D34B01C01A524103098B4201D335
S11320A00B01C01A5241C3088B4201D3CB00C01AA2
S11320B0524183088B4201D38B00C01A524143081A
S11320C08B4201D34B00C01A5241411A00D201463F
S11320D0524110467047FFE701B5002000F0F0F8C8
S11320E002BDC0460029F7D076E7704703460B438C
S11320F07FD4002243088B4274D303098B425FD3FD
S1132100030A8B4244D3030B8B4228D3030C8B4228
S11321100DD3FF22090212BA030C8B4202D312120E
S1132120090265D0030B8B4219D300E0090AC30BE3
S11321308B4201D3CB03C01A5241830B8B4201D390
S11321408B03C01A5241430B8B4201D34B03C01A79
S11321505241030B8B4201D30B03C01A5241C30AF1
S11321608B4201D3CB02C01A5241830A8B4201D362
S11321708B02C01A5241430A8B4201D34B02C01A4C
S11321805241030A8B4201D30B02C01A5241CDD2F1
S1132190C3098B4201D3CB01C01A524183098B423C
S11321A001D38B01C01A524143098B4201D34B0125
S11321B0C01A524103098B4201D30B01C01A524188
S11321C0C3088B4201D3CB00C01A524183088B420F
S11321D001D38B00C01A524143088B4201D34B00F8
S11321E0C01A5241411A00D201465241104670476A
S11321F05DE0CA0F00D04942031000D3404253406F
S113220000229C4603098B422DD3030A8B4212D32E
S1132210FC22890112BA030A8B420CD38901921160
S11322208B4208D3890192118B4204D389013AD09D
S1132230921100E08909C3098B4201D3CB01C01A72
S1132240524183098B4201D38B01C01A5241430985
S11322508B4201D34B01C01A524103098B4201D373
S11322600B01C01A5241C3088B4201D3CB00C01AE0
S1132270524183088B4201D38B00C01A5241D9D2F8
S113228043088B4201D34B00C01A5241411A00D279
S11322900146634652415B10104601D34042002B75
S11322A000D54942704763465B1000D3404201B5F4
S11322B0002000F005F802BD0029F8D016E77047A9
S11322C07047C04670B500220C4B04000D0001F0AD
S11322D081F9002804D12000290001F0DBF870BD49
S11322E0064B00222000290000F0BEFD01F0D2F8C8
S11322F080231B069C466044F1E7C0460000E04191
S1132300F0B557464546DE464E46E0B54C000E0352
S113231087B0834692461D008046360B640DCF0F6E
S1132320002C4FD06F4B9C4235D08023420F1B04AE
S1132330F600134333439946C30098466A4B00267C
S11323409C460023644403932B031B0B9B466B00A6
S1132350ED0F50465B0D01955ED0624A934253D017
S11323605A46D1008022400F120402430A43934686
S11323705246D1005C4A94460022634438006840C7
S113238084460290E41A16430F2E00D9B4E0574B4A
S1132390B6009B599F460300334399466CD10023F2
S11323A09846023308260393CEE7CB464146039A68
S11323B00197022A65D1019B4A4C9C4600230022C6
S11323C098466BE00300334399464ED0002E00D16B
S11323D0BCE1300001F008F903000B3B1C2B00DDCD
S11323E0ACE11D22D31A5A460100DA4008398E4066
S11323F01300334399465B468B40984600233C4C7C
S11324000026241A03939FE751465A46114329D1C3
S1132410002293460232B1E7594601431ED05B467F
S1132420002B00D19EE1584601F0DEF803000B3B7F
S11324301C2B00DD8FE102005946083A91408B467F
S11324401D21CB1A5146D9400B0059460B43514626
S11324509B469140264B00221B1A8FE70023012242
S11324609B468BE75146032288E7002398460133B5
S113247004260024039367E70323B14603930C2641
S113248062E7032A00D15CE2019B012A00D0E4E167
S113249013409C4600230024002298460021120386
S11324A0130B0A0D12051A432305124C4046224011
S11324B0134362465B00D2075B081343190007B05D
S11324C03CBC90469946A246AB46F0BD0023802210
S11324D09C4612039846034CE0E70023014C00227B
S11324E09846DBE7FF07000001FCFFFF5C3A0000B1
S11324F00DFCFFFFFFFF0F80D94500D939E100D162
S113250034E1002346464D469A46013C5B460A0E9A
S11325101B021A430B02170C039313041B0C390000
S1132520280090460193FFF757FD0200019B834664
S11325305A43280039009146FFF7D4FD350C0904AD
S11325400D43A9450DD95B464544013BA84500D937
S11325503AE1A94500D837E102235B429C46454451
S1132560E3444B46EB1A390018000493FFF734FD9B
S1132570019B05004343390004989946FFF7B2FDD7
S1132580330409041B0C0B43994509D943446A1EBF
S1132590984500D91AE1994500D817E1023D434412
S11325A04A469B1A5A4612042A4303999346100C2E
S11325B00A0C914609045A46090C4E460D001204B1
S11325C0120C4543059151437243704352190E0C4A
S11325D0B218954203D980256D02AC466044150CAF
S11325E009041204090C28185218834200D2CEE0C0
S11325F000D1C8E01D1A53469E1AB2459241524278
S1132600AB1A9A46984500D117E139001800FFF734
S1132610E3FC019B05004343390050460493FFF754
S113262061FD04980B04310C1943884209D94144D3
S11326306B1E884500D907E1884200D804E1023DB9
S11326404144049BCB1A180039000493FFF7C4FCDF
S1132650019B82464343390004980193FFF742FDEE
S113266001980B043104090C194388420DD95346CF
S11326704144013B884500D9E8E0884200D8E5E0C0
S113268002235B429C464144E244019B2D04CE1A42
S113269051462943059D4F462A000B04080C1B0C88
S11326A05A4345437B4378435B19170CFB189D42FF
S11326B003D980256D02AC4660441D0C12041B0432
S11326C0120C28189B18864200D293E000D18EE0A9
S11326D001231943A04BE318002B00DC99E04A07BF
S11326E000D09EE05A46D20106D55A469B4B1A406A
S11326F080239346DB00E318994A934268DD012363
S1132700029A984C1A400023944698460022C5E643
S113271080224B46120313420AD05B46134206D171
S11327201A431203120BAC4688468E4CB6E64B464F
S11327301A431203120BBC468A4CAFE603005A46F6
S1132740283B9A4000239146984657E6584600F0A5
S11327504BFF203040E603005246283B9A400021BC
S1132760934677E600F040FF20305FE6884500D2CC
S1132770C7E64B46DE075D0843465B081E434346F7
S1132780DB079A46C2E60025924500D333E7039E51
S11327905946B446E244B245AD416D424544EB1856
S11327A00139984507D2984200D97FE000D1BCE0B6
S11327B01D1A8B461FE79845FAD1039D5545F2D95A
S11327C043468B461D1A16E79B46CAE61500E7E604
S11327D05A46C90852070A435B0590465C0D5A469F
S11327E00123029952021940120B8C4656E6002B23
S11327F000D16FE746444A1EB04529D911008642EC
S113280000D065E7039A934200D061E762E70121B3
S113281049420120C21A382A21DD029B03409C460A
S113282038E60F220A40042A00D15BE70A00111D92
S1132830914292415242934454E7474BE318002B90
S1132840E5DD01225242F2E71D00FAE69A461CE752
S1132850B04239D86ED011003AE702933AE71F2A02
S11328603CDC20239B1A0C005846994098404B1E90
S113287099415B46D440D340204308431A004307A0
S113288009D00F230340042B05D00100081D884202
S11328909B415B42D21813023AD50123029A0124C8
S11328A01A400023944698460022F7E50221494243
S11328B08C46039DE344AC46E244AA45AD416D42D7
S11328C04544ED182D1A96E68A1E03994D008D4253
S11328D0894149424144761803958FE71F204042BD
S11328E0C31A5846D8400300202A28D040205D4609
S11328F0821A954029434A1E914119430723002215
S11329000B4009D00F2300220B400800042BBDD13B
S1132910010053075202120BC908194301238846C8
S11329200299002419408C46B8E55245BED88B461E
S1132930002560E6039D9D42C6D3110062E7002591
S1132940D8E780225B4612031A43019B1203120B41
S11329509C468846034CA1E5FF030000FFFFFFFEF1
S1132960FE070000FF070000F0B557464546DE4667
S11329704E46E0B50C0398464E00230B87B0070083
S113298092469B46760DCD0F002E6BD06D4B9E422A
S113299035D080245B46420F2404DB0014431C43DF
S11329A0C3009946684BA3469C460023002766440F
S11329B0029343461C035A00DB0F5046240B520D6E
S11329C0984600D176E05F4B9A426DD08023410F48
S11329D01B040B435C49E4008C461C43C3000020E9
S11329E062444146B6186940721C019194460743FB
S11329F00F2F00D9B0E0554ABF00D25997465B4625
S1132A000343994600D087E000239B4602330827FE
S1132A100293CEE742460192022867D0032800D1F0
S1132A200EE2012800D062E100230024002299462E
S1132A3001990140CDB2002112030B0D120B1B05AD
S1132A401343434A240513401C436400ED07640800
S1132A502C434846210007B03CBC90469946A24608
S1132A60AB46F0BD034399464FD05B46002B00D1E3
S1132A7089E1584600F0B8FD03000B3B1C2B00DD38
S1132A807AE11D22D31A3A0001005C46DA40083983
S1132A908C4013008F4023439B46B94600232D4EA0
S1132AA00027361A029384E7534623432AD100248D
S1132AB0022096E75346234320D0002C00D157E14F
S1132AC0200000F091FD03000B3B1C2B00DD49E1CD
S1132AD01D21CB1A51460200D9405346083A94406E
S1132AE093400C431B4A121A00207AE70125019BEC
S1132AF0144C1D400023002299469CE70024002228
S1132B0001206EE7534603206BE700239B46013305
S1132B100427002602934CE7032381460C270293E3
S1132B2047E780220023002512039946054C82E7DB
S1132B305C464B4602986FE75C464B46019502980B
S1132B406AE7C046FF07000001FCFFFF9C3A000053
S1132B50FFFF0F800DFCFFFF4A464946170C1A0C75
S1132B601B041B0C08041900000C41431500884683
S1132B7019007D437943039589462900150045438F
S1132B804D44029545462D0CAA46029D5544A9453F
S1132B9006D98A46802149028946CA44514603918E
S1132BA0290C0491414609042D04090C8846290086
S1132BB0250C24044144240C0591210041438846FA
S1132BC0210079438A466843414650448146080CB3
S1132BD048446F43824503D98021490289464F44C2
S1132BE0010C894639004944029141460F04049975
S1132BF03F0C88460004C01980444146049159465C
S1132C000F0C0904090C884659438A46390051437C
S1132C10894641464A435146090C8B467B43D218A8
S1132C205A44934203D980235B029B46D9445146BC
S1132C300904090C8A46414661437C43130C12047F
S1132C404B445244A1468A463C0041466C434D43A2
S1132C5051464D440F0C7D19A94503D980214902E1
S1132C6088464444049F0399B84641448B468345AF
S1132C70804141428846514608042F04000C3F1805
S1132C805846029910188946904292414F44BA46D8
S1132C90524299469346C244D144CB448F42BF41E9
S1132CA0C245894199459B41934592417F4249429E
S1132CB02D0C52420F435B4213437F19FF185B46AE
S1132CC03C19DB0D059A64021C43430213435D1E49
S1132CD0AB415A46C00D034352021343E20156D599
S1132CE001205A0803401343E207134364085A4877
S1132CF0604400284DDD5A0709D00F221A40042AE7
S1132D0005D01A1D9A429B415B42E4181300E2016C
S1132D1004D58020514AC00014406044504A904277
S1132D2000DDE3E60125DB0862071A436402019B28
S1132D309146220B4405640D1D407CE680225946D1
S1132D401203114208D0144206D122431203120B7B
S1132D5045469946434C6EE65B461A431203120BF2
S1132D60404C68E603005446283B9C400023B9E6E7
S1132D7000F03AFC2030A6E60300283B9F400023E5
S1132D80BB4699468AE600F02FFC203074E6B44630
S1132D90ADE701252A1A382A06DD019B00241D40CF
S1132DA000230022994646E61F2A21DC2025200024
S1132DB0AD1A1E00AB40A840D6405D1EAB41304367
S1132DC01843D440430709D00F230340042B05D0F4
S1132DD00300181D98429B415B42E418230221D54D
S1132DE00125019B01241D4000230022994622E66F
S1132DF01F2521006D42281AC1400800202A1DD039
S1132E005F35AA1A944023435C1EA341072503435C
S1132E101D400022002D09D00F2200241A40180062
S1132E20042AD6D1030065076402220BDB082B4376
S1132E3001259946019B00241D40FCE50024E2E79E
S1132E40802201251203224301991203120B0D4023
S1132E509946044CEFE5C046FF030000FFFFFFFE68
S1132E60FE070000FF070000F0B54646D6464F4671
S1132E700C03C0B5CD0F4E00610A440F0C43C100D2
S1132E805800400D84468A460F001903500F490A22
S1132E900143C648760DA846DB0FD200844500D115
S1132EA0D8E001204340AB4200D1A6E06046351A89
S1132EB0002D00DC05E1002810D10B00134300D1E4
S1132EC0D7E06B1E002B00D04BE153469F1ABA4546
S1132ED08041641A4042241A01261EE0B34B9E42EC
S1132EE048D080231B041943382D00DD19E11F2D20
S1132EF000DD4CE120230F005B1B10009A409F4033
S1132F00E840531E9A41E940074317435346DF1BE9
S1132F10611ABA45A44164420C1B230200D4C5E0E3
S1132F206402650A002D00D1F6E0280000F05CFB85
S1132F300300083B1F2B00DDE9E020223C00D21AED
S1132F409D40D4409F4025439E4200DDDBE09E1B14
S1132F50731C1F2B00DD0AE120223800D21A29003D
S1132F6097402C009140D8407A1E9741DC400026BF
S1132F7001430F437B0709D00F233B40042B05D0AB
S1132F803B1DBB42BF417F42E4191F00230225D5EC
S1132F90864B01369E4200D1AFE0854B01251C4093
S1132FA043466207FF08640276051743240B760D37
S1132FB01D4000212403230B0C0D7E4A24051C43D1
S1132FC01440330523435B00ED075B082B433800B3
S1132FD019001CBC90469946A246F0BD0125434603
S1132FE06207FF081743E4081D40704B9E4236D029
S1132FF024037605240B760DDBE76346F31A002BD6
S113300000DC94E06046002835D068488642B1D0A0
S113301080273F043943382B00DCFDE00A431700C6
S113302000217A1E9741574457458041091944426B
S11330300C1923023AD55D4B01369E4200D14BE177
S113304001225B4B1C407B0817401F43E2071743D8
S113305064088FE70800104300D024E721E7230029
S11330603B4300D1B9E18022120314432403240B0F
S11330709FE72E007EE70800104300D1CAE0581EE7
S11330808446002800D0E7E0524452458041641849
S11330904042241817000126230207D50226CFE751
S11330A064462C4300D1B3E12C0067467B0700D073
S11330B062E76307FF081F4301254346E4081D40F8
S11330C093E7002D78D1751C6D056D0D012D00DC85
S11330D0F2E05046801A8245BF41651A7F42ED1BDB
S11330E08446280200D48CE05046171ABA42924112
S11330F00C1B5542651B984614E7012543460024E2
S11331001D40002755E72A4CF61A2C4032E73D00B3
S113311028388540002717E7380000F065FA20308A
S113312006E70A43170000217A1E9741EEE6002BBA
S113313000D0E5E0731C9C465B055B0D012B00DCB5
S11331409FE01A4B9C4500D1C5E052445245804152
S1133150641840422418E707520817436408664677
S113316008E71248854200D185E01D00BCE629002D
S11331701F3EF140202B00D17FE04022D31A9D4016
S11331802F437D1EAF4100240F4300268EE72B0002
S11331900F00203BDF40202D71D040235D1BA94050
S11331A00A43511E8A4100211743AFE6FF0700007E
S11331B0FFFF7FFFFFFF0F80002E3ED0B34EB445CC
S11331C045D0802636046D423443382D00DDA8E016
S11331D01F2D00DD1FE1202627005046761BB74037
S11331E0E84007435046B040461EB041EC403843E7
S11331F0171ABA4292410C1B5242A41A66469846C8
S11332008BE6644667462C4300D08BE600250026F7
S11332100027EAE61E00ADE61F2B60DC2027F81A23
S11332200F00844687401000D84007436046824020
S1133230501E8241D9401743F5E626005046064306
S113324005D0ED43002DD3D0904EB445BDD10C0034
S11332501700664698468DE68C4883420BD0634639
S1133260D9E6002D00D096E00800104300D1E2E03A
S11332700C0017009846854E7CE6002580E7002167
S11332808EE7230050460343002E00D0A8E0002B15
S113329000D1DEE00B00134300D16BE652445245EB
S11332A080416418404224181700230200D4FDE62C
S11332B0774B66461C405DE6250050460543002ECC
S11332C0CFD1002D4FD10C00144300D1A0E00C004D
S11332D0170098464EE666460024002785E61F0040
S11332E00800203FF8400700202B00D18EE040204A
S11332F0C31A99400A43511E8A410021174392E69A
S1133300002E14D126005046064362D0DB43002B26
S11333105CD187189742924164185242A4186646B9
S113332087E650462043441EA041002460E7574EE0
S1133330B4454ED0802636045B423443382B00DD3E
S11333407FE01F2B00DD8BE0202627005046F61A75
S1133350B740D84007435046B040461EB0410743EB
S1133360DC40BF18D6E70D00154300D102E65046F5
S1133370801A8245BF41651A7F42ED1B84462802AC
S113338000D48DE65046171ABA4292410C1B5242A1
S1133390A41A9846EEE50D00154300D16BE750469C
S11333A06707C00807438020E4080003044207D0ED
S11333B0CD08054204D12C009846D70849070F438D
S11333C07B0FE4001C43FF00304ED3E52F4EB44581
S11333D0B4D10C0017006646CCE500270024E8E5CC
S11333E0002B39D00B00134300D144E7C008670712
S11333F007438020E40800030442E1D0CB080342E1
S1133400DED1D70849070F431C00D9E7002171E733
S113341000250027E9E52E002700203EF740202D57
S11334202FD04026751BAC4050462043441EA0417B
S113343000243843DCE6802400252403134E0027AF
S1133440D3E5504620430700781E87410024BF1867
S113345060E70C0017008DE50C0017000B4E89E5A2
S11334601E002700203EF740202B0CD04026F31AE4
S11334709C4050462043441EA04107430024BF18EB
S113348048E70024D0E70024F3E7C046FF07000024
S1133490FFFF7FFF30B5134D0A034B00120B5B0D8A
S11334A0C90F0024AB4210DD0F4CA3420FDC802473
S11334B00E4D64032243ED1A1F2D0BDD0C48C31A75
S11334C0DA405442002900D11400200030BD094BD9
S11334D0CC18FAE7084CE840A44663449A400243F7
S11334E0EFE7C046FE0300001D04000033040000A3
S11334F013040000FFFFFF7FEDFBFFFF10B5041E68
S113350028D000F071F8154B154A1B1AD21A1F2A3D
S113351015DD144AD21A9440002224035B05240BBF
S11335205B0D0021100024030A0D240B1205224315
S11335300D4C1B05224013435B00590810BD2100AC
S113354091400A000B21081AC4405B052403240B94
S11335505B0DE6E7002300240022E2E71E040000DE
S11335603304000013040000FFFF0F808446101C86
S113357062468C46191C634600E0C0461FB500F045
S1133580EFF8002801D40021C8421FBD10B500F097
S113359049F84042013010BD10B500F0E1F80028B0
S11335A001DB002010BD012010BDC04610B500F0A5
S11335B0D7F8002801DD002010BD012010BDC04651
S11335C010B500F069F8002801DC002010BD0120CE
S11335D010BDC04610B500F05FF8002801DA0020E5
S11335E010BD012010BDC0461C2101231B049842BC
S11335F001D3000C10391B0A984201D3000A083980
S11336001B09984201D30009043902A2105C401836
S11336107047C046040302020101010100000000DA
S113362000000000F0B54F464646D6465C00C0B5E3
S11336301F03DB0F9A46174B0E034D00844680464A
S1133640360B6D0DC90F91463F0B640D01209D4251
S113365008D09C4201D0A5420BD01CBC9046994690
S1133660A246F0BD63463343F7D1AC42F5D13A43A9
S1133670F3D10120BE42F0D1C845EED1514507D067
S1133680002DEAD163461E433000461EB041E4E7F4
S11336900020E2E7FF070000F0B54546DE46574646
S11336A04E46E0B51F033D0B2C4F0E034C00AB46BA
S11336B05D008446360B640DC90F90466D0DDB0F1B
S11336C0BC422AD0254FBD422DD0002C0FD130430F
S11336D00700814678427841C0B2002D17D15F4679
S11336E03A4314D14B460020002B0AD006E0002DAB
S11336F002D15846024301D0994218D048420121D0
S113370008433CBC90469946A246AB46F0BD00280F
S1133710F2D00120013B1843F3E737000743D1D02F
S113372002204042EDE75F461743CED0F8E7AC42B3
S1133730E4DC03DA481E01210843E2E75E45DDD8F4
S113374006D000205E45DCD20123481E1843D8E78A
S1133750C445D3D80020C445F6D3D2E7FF07000000
S1133760F0B54E464546DE4657465C00E0B51F03BD
S1133770DB0F99462A4B0E034D00C90F8446360BC6
S11337806D0D8B4690463F0B640D9D4220D0244B1B
S11337909C4222D0002D12D1304343424341DBB23C
S11337A0002C1FD0002B0CD04B460120013B0343BF
S11337B018003CBC90469946A246AB46F0BD002C8E
S11337C016D0CB4517D05B46594201230B43EFE794
S11337D0310002230143EBD1D9E73900022311431D
S11337E0E6D1D7E73A43DDD100230028E0D0EAE769
S11337F03A43E6D1E7E7A542E5DC05DBBE42E2D881
S113380007D00023BE42D3D25946012301390B43CA
S1133810CEE7C445D7D80023C445F5D3C8E7C0468E
S1133820FF07000070B500260C4D0D4C641BA4105E
S1133830A64209D1002600F065F90A4D0A4C641B22
S1133840A410A64205D170BDB300EB5898470136C9
S1133850EEE7B300EB5898470136F2E7103B00005F
S1133860103B0000103B0000143B0000F0B51700B3
S11338708FB0252206000D0004A8184900F034F882
S113388004AABB1E00240392222B05D92C70250008
S113389028000FB0F0BD019C631C0193EB1800934A
S11338A03000013B39000293FEF71CFC039B029A93
S11338B05B5C300013703900FEF78EFB061EEAD104
S11338C0009B18702B005A1B9442E1DD1A78295D85
S11338D019702A550133013CF5E7C046DC3A000073
S11338E010B5FFF7C3FF10BD002310B59A4200D1F5
S11338F010BDCC5CC4540133F8E70000800282039D
S1133900850388028A028F019202940296020000C3
S11339102E2E2F68616C2F7372632F68616C5F6148
S113392064635F73796E632E630000002E2E2F682C
S1133930616C2F7372632F68616C5F6932635F6DB2
S11339405F73796E632E63002E2E2F68616C2F7364
S113395072632F68616C5F696F2E6300000001055C
S113396000000718000044100000000000000000E0
S113397000000000000000002E2E2F68706C2F61E4
S113398064632F68706C5F6164632E6300000000E1
S11339900000000000000000000000000000000023
S11339A000000000010000001400200000010000DD
S11339B00E0F00000000D70000093D0000000000C9
S11339C000000000000000000000000000000000F3
S11339D000000000000000000000000000000000E3
S11339E02E2E2F68706C2F736572636F6D2F687045
S11339F06C5F736572636F6D2E6300003E1C000084
S1133A004C1C00005A1C0000681C0000761C0000BE
S1133A10841C0000981C0000A81C0000C21C0000AC
S1133A20DC1C0000F61C0000021D0000121D00003A
S1133A30241D0000A21E0000AE1E0000B41E0000E3
S1133A40A61E0000A61E0000A61E0000A61E000062
S1133A50BA1E0000EA1E0000021F0000F824000045
S1133A60DA24000094240000B2230000942400000F
S1133A70CC24000094240000B2230000DA240000C7
S1133A80DA240000CC240000B2230000AA230000A2
S1133A90AA230000AA23000010270000582B0000CE
S1133AA0182A0000182A0000142A0000302B0000F5
S1133AB0302B0000222B0000142A0000302B0000C1
S1133AC0222B0000302B0000142A0000382B0000A9
S1133AD0382B0000382B00003C2D000030313233ED
S1133AE03435363738396162636465666768696A94
S1133AF06B6C6D6E6F707172737475767778797A9A
S1133B0000000000F8B5C046F8BC08BC9E467047EB
S1133B10DD000000F8B5C046F8BC08BC9E467047FE
S1073B20B5000000E8
S1133B24010001000100010001000100020011274D
S1073B341127FF0250
S9030000FC
